{
  "_format": "hh-sol-artifact-1",
  "contractName": "Voter",
  "sourceName": "contracts/Voter.sol",
  "abi": [
    {
      "inputs": [
        {
          "internalType": "string",
          "name": "_voting",
          "type": "string"
        }
      ],
      "stateMutability": "nonpayable",
      "type": "constructor"
    },
    {
      "inputs": [],
      "name": "reset",
      "outputs": [],
      "stateMutability": "nonpayable",
      "type": "function"
    },
    {
      "inputs": [],
      "name": "show",
      "outputs": [
        {
          "internalType": "string",
          "name": "",
          "type": "string"
        }
      ],
      "stateMutability": "view",
      "type": "function"
    },
    {
      "inputs": [],
      "name": "tv",
      "outputs": [
        {
          "internalType": "uint256",
          "name": "",
          "type": "uint256"
        },
        {
          "internalType": "uint256",
          "name": "",
          "type": "uint256"
        },
        {
          "internalType": "uint256",
          "name": "",
          "type": "uint256"
        },
        {
          "internalType": "uint256",
          "name": "",
          "type": "uint256"
        },
        {
          "internalType": "uint256",
          "name": "",
          "type": "uint256"
        },
        {
          "internalType": "uint256",
          "name": "",
          "type": "uint256"
        },
        {
          "internalType": "uint256",
          "name": "",
          "type": "uint256"
        },
        {
          "internalType": "uint256",
          "name": "",
          "type": "uint256"
        }
      ],
      "stateMutability": "view",
      "type": "function"
    },
    {
      "inputs": [
        {
          "internalType": "uint256",
          "name": "_vote",
          "type": "uint256"
        }
      ],
      "name": "vote",
      "outputs": [],
      "stateMutability": "nonpayable",
      "type": "function"
    },
    {
      "inputs": [],
      "name": "winner",
      "outputs": [
        {
          "internalType": "string",
          "name": "partyName",
          "type": "string"
        },
        {
          "internalType": "uint256",
          "name": "totalVotes",
          "type": "uint256"
        }
      ],
      "stateMutability": "view",
      "type": "function"
    }
  ],
  "bytecode": "0x60806040526000600155600060025560006003556000600455600060055560006006556000600755600060085560006009553480156200003e57600080fd5b50604051620018c7380380620018c783398181016040528101906200006491906200025c565b620000b06040518060400160405280602081526020017f4465706c6f79696e67206120566f7465722077697468206772656574696e673a81525082620000b760201b62000da91760201c565b5062000444565b620001598282604051602401620000d0929190620002e2565b6040516020818303038152906040527f4b5c4277000000000000000000000000000000000000000000000000000000007bffffffffffffffffffffffffffffffffffffffffffffffffffffffff19166020820180517bffffffffffffffffffffffffffffffffffffffffffffffffffffffff83818316178352505050506200015d60201b60201c565b5050565b62000183816200017e6200018660201b62000e4517620001a760201b60201c565b60201c565b50565b60006a636f6e736f6c652e6c6f679050600080835160208501845afa505050565b620001bb60201b62000fc117819050919050565b7f4e487b7100000000000000000000000000000000000000000000000000000000600052605160045260246000fd5b600062000201620001fb8462000346565b6200031d565b9050828152602081018484840111156200021a57600080fd5b6200022784828562000398565b509392505050565b600082601f8301126200024157600080fd5b815162000253848260208601620001ea565b91505092915050565b6000602082840312156200026f57600080fd5b600082015167ffffffffffffffff8111156200028a57600080fd5b62000298848285016200022f565b91505092915050565b6000620002ae826200037c565b620002ba818562000387565b9350620002cc81856020860162000398565b620002d78162000433565b840191505092915050565b60006040820190508181036000830152620002fe8185620002a1565b90508181036020830152620003148184620002a1565b90509392505050565b6000620003296200033c565b9050620003378282620003ce565b919050565b6000604051905090565b600067ffffffffffffffff82111562000364576200036362000404565b5b6200036f8262000433565b9050602081019050919050565b600081519050919050565b600082825260208201905092915050565b60005b83811015620003b85780820151818401526020810190506200039b565b83811115620003c8576000848401525b50505050565b620003d98262000433565b810181811067ffffffffffffffff82111715620003fb57620003fa62000404565b5b80604052505050565b7f4e487b7100000000000000000000000000000000000000000000000000000000600052604160045260246000fd5b6000601f19601f8301169050919050565b61147380620004546000396000f3fe608060405234801561001057600080fd5b50600436106100575760003560e01c80630121b93f1461005c578063bd8a732214610078578063cc80f6f31461009d578063d826f88f146100bb578063dfbf53ae146100c5575b600080fd5b610076600480360381019061007191906110a8565b6100e4565b005b610080610457565b6040516100949897969594939291906111a2565b60405180910390f35b6100a5610495565b6040516100b29190611119565b60405180910390f35b6100c3610527565b005b6100cd6105b5565b6040516100db929190611172565b60405180910390f35b6001811415610156576040518060400160405280601e81526020017f566f74656420496e6469616e204e6174696f6e616c20436f6e6772657373000081525060009080519060200190610138929190610ff0565b506001600081548092919061014c906112ab565b9190505550610454565b60028114156101c8576040518060400160405280601a81526020017f566f746564204268617274697965204a616e7461205061727479000000000000815250600090805190602001906101aa929190610ff0565b50600260008154809291906101be906112ab565b9190505550610453565b600381141561021d576040518060600160405280602481526020016113a960249139600090805190602001906101ff929190610ff0565b5060036000815480929190610213906112ab565b9190505550610452565b6004811415610272576040518060600160405280602e815260200161137b602e913960009080519060200190610254929190610ff0565b5060046000815480929190610268906112ab565b9190505550610451565b60058114156102c75760405180606001604052806026815260200161141860269139600090805190602001906102a9929190610ff0565b50600560008154809291906102bd906112ab565b9190505550610450565b6006811415610339576040518060400160405280601f81526020017f566f74656420426168756a616e2053616d616a205061727479202842535029008152506000908051906020019061031b929190610ff0565b506006600081548092919061032f906112ab565b919050555061044f565b600781141561038e576040518060600160405280602981526020016113cd6029913960009080519060200190610370929190610ff0565b5060076000815480929190610384906112ab565b919050555061044e565b6008811415610400576040518060400160405280601481526020017f41616d2041646d69205061727479202841415029000000000000000000000000815250600090805190602001906103e2929190610ff0565b50600860008154809291906103f6906112ab565b919050555061044d565b6040518060400160405280600d81526020017f4572726f72204f636375726564000000000000000000000000000000000000008152506000908051906020019061044b929190610ff0565b505b5b5b5b5b5b5b5b50565b600080600080600080600080600154600254600354600454600554600654600754600854975097509750975097509750975097509091929394959697565b6060600080546104a490611279565b80601f01602080910402602001604051908101604052809291908181526020018280546104d090611279565b801561051d5780601f106104f25761010080835404028352916020019161051d565b820191906000526020600020905b81548152906001019060200180831161050057829003601f168201915b5050505050905090565b6040518060400160405280600b81526020017f506c6561736520766f746500000000000000000000000000000000000000000081525060009080519060200190610572929190610ff0565b5060006002819055506000600181905550600060038190555060006004819055506000600581905550600060068190555060006007819055506000600881905550565b6060600080600967ffffffffffffffff8111156105fb577f4e487b7100000000000000000000000000000000000000000000000000000000600052604160045260246000fd5b6040519080825280602002602001820160405280156106295781602001602082028036833780820191505090505b50905060095481600081518110610669577f4e487b7100000000000000000000000000000000000000000000000000000000600052603260045260246000fd5b602002602001018181525050600154816001815181106106b2577f4e487b7100000000000000000000000000000000000000000000000000000000600052603260045260246000fd5b602002602001018181525050600254816002815181106106fb577f4e487b7100000000000000000000000000000000000000000000000000000000600052603260045260246000fd5b60200260200101818152505060035481600381518110610744577f4e487b7100000000000000000000000000000000000000000000000000000000600052603260045260246000fd5b6020026020010181815250506004548160048151811061078d577f4e487b7100000000000000000000000000000000000000000000000000000000600052603260045260246000fd5b602002602001018181525050600554816005815181106107d6577f4e487b7100000000000000000000000000000000000000000000000000000000600052603260045260246000fd5b6020026020010181815250506006548160068151811061081f577f4e487b7100000000000000000000000000000000000000000000000000000000600052603260045260246000fd5b60200260200101818152505060075481600781518110610868577f4e487b7100000000000000000000000000000000000000000000000000000000600052603260045260246000fd5b602002602001018181525050600854816008815181106108b1577f4e487b7100000000000000000000000000000000000000000000000000000000600052603260045260246000fd5b60200260200101818152505060006108c882610e66565b90506000811415610957578160008151811061090d577f4e487b7100000000000000000000000000000000000000000000000000000000600052603260045260246000fd5b60200260200101516040518060400160405280601081526020017f436f6e74657374616e747320447261770000000000000000000000000000000081525090935093505050610da5565b60018114156109e4578160018151811061099a577f4e487b7100000000000000000000000000000000000000000000000000000000600052603260045260246000fd5b60200260200101516040518060400160405280601881526020017f496e6469616e204e6174696f6e616c20436f6e6772657373000000000000000081525090935093505050610da5565b6002811415610a715781600281518110610a27577f4e487b7100000000000000000000000000000000000000000000000000000000600052603260045260246000fd5b60200260200101516040518060400160405280601481526020017f4268617274697965204a616e746120506172747900000000000000000000000081525090935093505050610da5565b6003811415610afe5781600381518110610ab4577f4e487b7100000000000000000000000000000000000000000000000000000000600052603260045260246000fd5b60200260200101516040518060400160405280601881526020017f436f6d6d756e697374205061727479206f6620496e646961000000000000000081525090935093505050610da5565b6004811415610b6e5781600481518110610b41577f4e487b7100000000000000000000000000000000000000000000000000000000600052603260045260246000fd5b60200260200101516040518060600160405280602281526020016113f66022913990935093505050610da5565b6005811415610bfb5781600581518110610bb1577f4e487b7100000000000000000000000000000000000000000000000000000000600052603260045260246000fd5b60200260200101516040518060400160405280601a81526020017f4e6174696f6e616c69737420436f6e677265737320506172747900000000000081525090935093505050610da5565b6006811415610c885781600681518110610c3e577f4e487b7100000000000000000000000000000000000000000000000000000000600052603260045260246000fd5b60200260200101516040518060400160405280601381526020017f426168756a616e2053616d616a2050617274790000000000000000000000000081525090935093505050610da5565b6007811415610d155781600781518110610ccb577f4e487b7100000000000000000000000000000000000000000000000000000000600052603260045260246000fd5b60200260200101516040518060400160405280601c81526020017f416c6c20496e646961205472696e616d6f6f6c20436f6e67726573730000000081525090935093505050610da5565b6008811415610da25781600881518110610d58577f4e487b7100000000000000000000000000000000000000000000000000000000600052603260045260246000fd5b60200260200101516040518060400160405280600e81526020017f41616d2041646d6920506172747900000000000000000000000000000000000081525090935093505050610da5565b50505b9091565b610e418282604051602401610dbf92919061113b565b6040516020818303038152906040527f4b5c4277000000000000000000000000000000000000000000000000000000007bffffffffffffffffffffffffffffffffffffffffffffffffffffffff19166020820180517bffffffffffffffffffffffffffffffffffffffffffffffffffffffff8381831617835250505050610f9c565b5050565b60006a636f6e736f6c652e6c6f679050600080835160208501845afa505050565b600080600090506000805b8451811015610f1c5782858281518110610eb4577f4e487b7100000000000000000000000000000000000000000000000000000000600052603260045260246000fd5b60200260200101511115610f0957848181518110610efb577f4e487b7100000000000000000000000000000000000000000000000000000000600052603260045260246000fd5b602002602001015192508091505b8080610f14906112ab565b915050610e71565b5060005b8451811015610f915782858281518110610f63577f4e487b7100000000000000000000000000000000000000000000000000000000600052603260045260246000fd5b60200260200101511415610f7e57808214610f7d57600091505b5b8080610f89906112ab565b915050610f20565b508092505050919050565b610fb381610fab610e45610fb6565b63ffffffff16565b50565b610fc1819050919050565b7f4e487b7100000000000000000000000000000000000000000000000000000000600052605160045260246000fd5b828054610ffc90611279565b90600052602060002090601f01602090048101928261101e5760008555611065565b82601f1061103757805160ff1916838001178555611065565b82800160010185558215611065579182015b82811115611064578251825591602001919060010190611049565b5b5090506110729190611076565b5090565b5b8082111561108f576000816000905550600101611077565b5090565b6000813590506110a281611363565b92915050565b6000602082840312156110ba57600080fd5b60006110c884828501611093565b91505092915050565b60006110dc82611220565b6110e6818561122b565b93506110f6818560208601611246565b6110ff81611352565b840191505092915050565b6111138161123c565b82525050565b6000602082019050818103600083015261113381846110d1565b905092915050565b6000604082019050818103600083015261115581856110d1565b9050818103602083015261116981846110d1565b90509392505050565b6000604082019050818103600083015261118c81856110d1565b905061119b602083018461110a565b9392505050565b6000610100820190506111b8600083018b61110a565b6111c5602083018a61110a565b6111d2604083018961110a565b6111df606083018861110a565b6111ec608083018761110a565b6111f960a083018661110a565b61120660c083018561110a565b61121360e083018461110a565b9998505050505050505050565b600081519050919050565b600082825260208201905092915050565b6000819050919050565b60005b83811015611264578082015181840152602081019050611249565b83811115611273576000848401525b50505050565b6000600282049050600182168061129157607f821691505b602082108114156112a5576112a4611323565b5b50919050565b60006112b68261123c565b91507fffffffffffffffffffffffffffffffffffffffffffffffffffffffffffffffff8214156112e9576112e86112f4565b5b600182019050919050565b7f4e487b7100000000000000000000000000000000000000000000000000000000600052601160045260246000fd5b7f4e487b7100000000000000000000000000000000000000000000000000000000600052602260045260246000fd5b6000601f19601f8301169050919050565b61136c8161123c565b811461137757600080fd5b5056fe566f74656420436f6d6d756e697374205061727479206f6620496e64696120284d61727869737429202843504d29566f74656420436f6d6d756e697374205061727479206f6620496e646961202843504929566f74656420416c6c20496e646961205472696e616d6f6f6c20436f6e677265737320284149544329436f6d6d756e697374205061727479206f6620496e64696120284d61727869737429566f746564204e6174696f6e616c69737420436f6e677265737320506172747920284e435029a26469706673582212207d7b47fe95f1b2840f75347623b0f328b2030d68c55d01f6b59eab22f9e8d64764736f6c63430008040033",
  "linkReferences": {},
  "deployedLinkReferences": {}
}